{
    "_format": "hh-sol-artifact-1",
    "contractName": "MyNFTCollection",
    "sourceName": "contracts/MyNFTCollection.sol",
    "abi": [
        {
            "inputs": [],
            "stateMutability": "nonpayable",
            "type": "constructor"
        },
        {
            "anonymous": false,
            "inputs": [
                {
                    "indexed": true,
                    "internalType": "address",
                    "name": "owner",
                    "type": "address"
                },
                {
                    "indexed": true,
                    "internalType": "address",
                    "name": "approved",
                    "type": "address"
                },
                {
                    "indexed": true,
                    "internalType": "uint256",
                    "name": "tokenId",
                    "type": "uint256"
                }
            ],
            "name": "Approval",
            "type": "event"
        },
        {
            "anonymous": false,
            "inputs": [
                {
                    "indexed": true,
                    "internalType": "address",
                    "name": "owner",
                    "type": "address"
                },
                {
                    "indexed": true,
                    "internalType": "address",
                    "name": "operator",
                    "type": "address"
                },
                {
                    "indexed": false,
                    "internalType": "bool",
                    "name": "approved",
                    "type": "bool"
                }
            ],
            "name": "ApprovalForAll",
            "type": "event"
        },
        {
            "anonymous": false,
            "inputs": [
                {
                    "indexed": true,
                    "internalType": "address",
                    "name": "previousOwner",
                    "type": "address"
                },
                {
                    "indexed": true,
                    "internalType": "address",
                    "name": "newOwner",
                    "type": "address"
                }
            ],
            "name": "OwnershipTransferred",
            "type": "event"
        },
        {
            "anonymous": false,
            "inputs": [
                {
                    "indexed": false,
                    "internalType": "address",
                    "name": "account",
                    "type": "address"
                }
            ],
            "name": "Paused",
            "type": "event"
        },
        {
            "anonymous": false,
            "inputs": [
                {
                    "indexed": true,
                    "internalType": "address",
                    "name": "from",
                    "type": "address"
                },
                {
                    "indexed": true,
                    "internalType": "address",
                    "name": "to",
                    "type": "address"
                },
                {
                    "indexed": true,
                    "internalType": "uint256",
                    "name": "tokenId",
                    "type": "uint256"
                }
            ],
            "name": "Transfer",
            "type": "event"
        },
        {
            "anonymous": false,
            "inputs": [
                {
                    "indexed": false,
                    "internalType": "address",
                    "name": "account",
                    "type": "address"
                }
            ],
            "name": "Unpaused",
            "type": "event"
        },
        {
            "inputs": [
                {
                    "internalType": "address",
                    "name": "to",
                    "type": "address"
                },
                {
                    "internalType": "uint256",
                    "name": "tokenId",
                    "type": "uint256"
                }
            ],
            "name": "approve",
            "outputs": [],
            "stateMutability": "nonpayable",
            "type": "function"
        },
        {
            "inputs": [
                {
                    "internalType": "address",
                    "name": "owner",
                    "type": "address"
                }
            ],
            "name": "balanceOf",
            "outputs": [
                {
                    "internalType": "uint256",
                    "name": "",
                    "type": "uint256"
                }
            ],
            "stateMutability": "view",
            "type": "function"
        },
        {
            "inputs": [
                {
                    "internalType": "uint256",
                    "name": "tokenId",
                    "type": "uint256"
                }
            ],
            "name": "burn",
            "outputs": [],
            "stateMutability": "nonpayable",
            "type": "function"
        },
        {
            "inputs": [
                {
                    "internalType": "uint256",
                    "name": "tokenId",
                    "type": "uint256"
                }
            ],
            "name": "getApproved",
            "outputs": [
                {
                    "internalType": "address",
                    "name": "",
                    "type": "address"
                }
            ],
            "stateMutability": "view",
            "type": "function"
        },
        {
            "inputs": [
                {
                    "internalType": "address",
                    "name": "owner",
                    "type": "address"
                },
                {
                    "internalType": "address",
                    "name": "operator",
                    "type": "address"
                }
            ],
            "name": "isApprovedForAll",
            "outputs": [
                {
                    "internalType": "bool",
                    "name": "",
                    "type": "bool"
                }
            ],
            "stateMutability": "view",
            "type": "function"
        },
        {
            "inputs": [],
            "name": "name",
            "outputs": [
                {
                    "internalType": "string",
                    "name": "",
                    "type": "string"
                }
            ],
            "stateMutability": "view",
            "type": "function"
        },
        {
            "inputs": [],
            "name": "owner",
            "outputs": [
                {
                    "internalType": "address",
                    "name": "",
                    "type": "address"
                }
            ],
            "stateMutability": "view",
            "type": "function"
        },
        {
            "inputs": [
                {
                    "internalType": "uint256",
                    "name": "tokenId",
                    "type": "uint256"
                }
            ],
            "name": "ownerOf",
            "outputs": [
                {
                    "internalType": "address",
                    "name": "",
                    "type": "address"
                }
            ],
            "stateMutability": "view",
            "type": "function"
        },
        {
            "inputs": [],
            "name": "pause",
            "outputs": [],
            "stateMutability": "nonpayable",
            "type": "function"
        },
        {
            "inputs": [],
            "name": "paused",
            "outputs": [
                {
                    "internalType": "bool",
                    "name": "",
                    "type": "bool"
                }
            ],
            "stateMutability": "view",
            "type": "function"
        },
        {
            "inputs": [],
            "name": "renounceOwnership",
            "outputs": [],
            "stateMutability": "nonpayable",
            "type": "function"
        },
        {
            "inputs": [
                {
                    "internalType": "address",
                    "name": "to",
                    "type": "address"
                },
                {
                    "internalType": "uint256",
                    "name": "tokenId",
                    "type": "uint256"
                },
                {
                    "internalType": "string",
                    "name": "uri",
                    "type": "string"
                }
            ],
            "name": "safeMint",
            "outputs": [],
            "stateMutability": "nonpayable",
            "type": "function"
        },
        {
            "inputs": [
                {
                    "internalType": "address",
                    "name": "from",
                    "type": "address"
                },
                {
                    "internalType": "address",
                    "name": "to",
                    "type": "address"
                },
                {
                    "internalType": "uint256",
                    "name": "tokenId",
                    "type": "uint256"
                }
            ],
            "name": "safeTransferFrom",
            "outputs": [],
            "stateMutability": "nonpayable",
            "type": "function"
        },
        {
            "inputs": [
                {
                    "internalType": "address",
                    "name": "from",
                    "type": "address"
                },
                {
                    "internalType": "address",
                    "name": "to",
                    "type": "address"
                },
                {
                    "internalType": "uint256",
                    "name": "tokenId",
                    "type": "uint256"
                },
                {
                    "internalType": "bytes",
                    "name": "data",
                    "type": "bytes"
                }
            ],
            "name": "safeTransferFrom",
            "outputs": [],
            "stateMutability": "nonpayable",
            "type": "function"
        },
        {
            "inputs": [
                {
                    "internalType": "address",
                    "name": "operator",
                    "type": "address"
                },
                {
                    "internalType": "bool",
                    "name": "approved",
                    "type": "bool"
                }
            ],
            "name": "setApprovalForAll",
            "outputs": [],
            "stateMutability": "nonpayable",
            "type": "function"
        },
        {
            "inputs": [
                {
                    "internalType": "bytes4",
                    "name": "interfaceId",
                    "type": "bytes4"
                }
            ],
            "name": "supportsInterface",
            "outputs": [
                {
                    "internalType": "bool",
                    "name": "",
                    "type": "bool"
                }
            ],
            "stateMutability": "view",
            "type": "function"
        },
        {
            "inputs": [],
            "name": "symbol",
            "outputs": [
                {
                    "internalType": "string",
                    "name": "",
                    "type": "string"
                }
            ],
            "stateMutability": "view",
            "type": "function"
        },
        {
            "inputs": [
                {
                    "internalType": "uint256",
                    "name": "index",
                    "type": "uint256"
                }
            ],
            "name": "tokenByIndex",
            "outputs": [
                {
                    "internalType": "uint256",
                    "name": "",
                    "type": "uint256"
                }
            ],
            "stateMutability": "view",
            "type": "function"
        },
        {
            "inputs": [
                {
                    "internalType": "address",
                    "name": "owner",
                    "type": "address"
                },
                {
                    "internalType": "uint256",
                    "name": "index",
                    "type": "uint256"
                }
            ],
            "name": "tokenOfOwnerByIndex",
            "outputs": [
                {
                    "internalType": "uint256",
                    "name": "",
                    "type": "uint256"
                }
            ],
            "stateMutability": "view",
            "type": "function"
        },
        {
            "inputs": [
                {
                    "internalType": "uint256",
                    "name": "tokenId",
                    "type": "uint256"
                }
            ],
            "name": "tokenURI",
            "outputs": [
                {
                    "internalType": "string",
                    "name": "",
                    "type": "string"
                }
            ],
            "stateMutability": "view",
            "type": "function"
        },
        {
            "inputs": [],
            "name": "totalSupply",
            "outputs": [
                {
                    "internalType": "uint256",
                    "name": "",
                    "type": "uint256"
                }
            ],
            "stateMutability": "view",
            "type": "function"
        },
        {
            "inputs": [
                {
                    "internalType": "address",
                    "name": "from",
                    "type": "address"
                },
                {
                    "internalType": "address",
                    "name": "to",
                    "type": "address"
                },
                {
                    "internalType": "uint256",
                    "name": "tokenId",
                    "type": "uint256"
                }
            ],
            "name": "transferFrom",
            "outputs": [],
            "stateMutability": "nonpayable",
            "type": "function"
        },
        {
            "inputs": [
                {
                    "internalType": "address",
                    "name": "newOwner",
                    "type": "address"
                }
            ],
            "name": "transferOwnership",
            "outputs": [],
            "stateMutability": "nonpayable",
            "type": "function"
        },
        {
            "inputs": [],
            "name": "unpause",
            "outputs": [],
            "stateMutability": "nonpayable",
            "type": "function"
        }
    ],
    "bytecode": "0x60806040523480156200001157600080fd5b506040518060400160405280600f81526020017f4d794e4654436f6c6c656374696f6e00000000000000000000000000000000008152506040518060400160405280600381526020017f4d544b0000000000000000000000000000000000000000000000000000000000815250816000908051906020019062000096929190620001c1565b508060019080519060200190620000af929190620001c1565b5050506000600b60006101000a81548160ff021916908315150217905550620000ed620000e1620000f360201b60201c565b620000fb60201b60201c565b620002d6565b600033905090565b6000600b60019054906101000a900473ffffffffffffffffffffffffffffffffffffffff16905081600b60016101000a81548173ffffffffffffffffffffffffffffffffffffffff021916908373ffffffffffffffffffffffffffffffffffffffff1602179055508173ffffffffffffffffffffffffffffffffffffffff168173ffffffffffffffffffffffffffffffffffffffff167f8be0079c531659141344cd1fd0a4f28419497f9722a3daafe3b4186f6b6457e060405160405180910390a35050565b828054620001cf9062000271565b90600052602060002090601f016020900481019282620001f357600085556200023f565b82601f106200020e57805160ff19168380011785556200023f565b828001600101855582156200023f579182015b828111156200023e57825182559160200191906001019062000221565b5b5090506200024e919062000252565b5090565b5b808211156200026d57600081600090555060010162000253565b5090565b600060028204905060018216806200028a57607f821691505b60208210811415620002a157620002a0620002a7565b5b50919050565b7f4e487b7100000000000000000000000000000000000000000000000000000000600052602260045260246000fd5b61398980620002e66000396000f3fe608060405234801561001057600080fd5b50600436106101585760003560e01c80636352211e116100c3578063a22cb4651161007c578063a22cb465146103a1578063b88d4fde146103bd578063c87b56dd146103d9578063cd279c7c14610409578063e985e9c514610425578063f2fde38b1461045557610158565b80636352211e146102f157806370a0823114610321578063715018a6146103515780638456cb591461035b5780638da5cb5b1461036557806395d89b411461038357610158565b80632f745c59116101155780632f745c59146102315780633f4ba83a1461026157806342842e0e1461026b57806342966c68146102875780634f6ccce7146102a35780635c975abb146102d357610158565b806301ffc9a71461015d57806306fdde031461018d578063081812fc146101ab578063095ea7b3146101db57806318160ddd146101f757806323b872dd14610215575b600080fd5b610177600480360381019061017291906129aa565b610471565b6040516101849190612df6565b60405180910390f35b610195610483565b6040516101a29190612e11565b60405180910390f35b6101c560048036038101906101c091906129fc565b610515565b6040516101d29190612d8f565b60405180910390f35b6101f560048036038101906101f09190612907565b61055b565b005b6101ff610673565b60405161020c9190613073565b60405180910390f35b61022f600480360381019061022a9190612801565b610680565b005b61024b60048036038101906102469190612907565b6106e0565b6040516102589190613073565b60405180910390f35b610269610785565b005b61028560048036038101906102809190612801565b610797565b005b6102a1600480360381019061029c91906129fc565b6107b7565b005b6102bd60048036038101906102b891906129fc565b610813565b6040516102ca9190613073565b60405180910390f35b6102db6108aa565b6040516102e89190612df6565b60405180910390f35b61030b600480360381019061030691906129fc565b6108c1565b6040516103189190612d8f565b60405180910390f35b61033b6004803603810190610336919061279c565b610973565b6040516103489190613073565b60405180910390f35b610359610a2b565b005b610363610a3f565b005b61036d610a51565b60405161037a9190612d8f565b60405180910390f35b61038b610a7b565b6040516103989190612e11565b60405180910390f35b6103bb60048036038101906103b691906128cb565b610b0d565b005b6103d760048036038101906103d29190612850565b610b23565b005b6103f360048036038101906103ee91906129fc565b610b85565b6040516104009190612e11565b60405180910390f35b610423600480360381019061041e9190612943565b610b97565b005b61043f600480360381019061043a91906127c5565b610bb8565b60405161044c9190612df6565b60405180910390f35b61046f600480360381019061046a919061279c565b610c4c565b005b600061047c82610cd0565b9050919050565b606060008054610492906132c9565b80601f01602080910402602001604051908101604052809291908181526020018280546104be906132c9565b801561050b5780601f106104e05761010080835404028352916020019161050b565b820191906000526020600020905b8154815290600101906020018083116104ee57829003601f168201915b5050505050905090565b600061052082610d4a565b6004600083815260200190815260200160002060009054906101000a900473ffffffffffffffffffffffffffffffffffffffff169050919050565b6000610566826108c1565b90508073ffffffffffffffffffffffffffffffffffffffff168373ffffffffffffffffffffffffffffffffffffffff1614156105d7576040517f08c379a00000000000000000000000000000000000000000000000000000000081526004016105ce90613013565b60405180910390fd5b8073ffffffffffffffffffffffffffffffffffffffff166105f6610d95565b73ffffffffffffffffffffffffffffffffffffffff16148061062557506106248161061f610d95565b610bb8565b5b610664576040517f08c379a000000000000000000000000000000000000000000000000000000000815260040161065b90612f93565b60405180910390fd5b61066e8383610d9d565b505050565b6000600880549050905090565b61069161068b610d95565b82610e56565b6106d0576040517f08c379a00000000000000000000000000000000000000000000000000000000081526004016106c790613053565b60405180910390fd5b6106db838383610eeb565b505050565b60006106eb83610973565b821061072c576040517f08c379a000000000000000000000000000000000000000000000000000000000815260040161072390612e53565b60405180910390fd5b600660008473ffffffffffffffffffffffffffffffffffffffff1673ffffffffffffffffffffffffffffffffffffffff168152602001908152602001600020600083815260200190815260200160002054905092915050565b61078d611152565b6107956111d0565b565b6107b283838360405180602001604052806000815250610b23565b505050565b6107c86107c2610d95565b82610e56565b610807576040517f08c379a00000000000000000000000000000000000000000000000000000000081526004016107fe90613053565b60405180910390fd5b61081081611233565b50565b600061081d610673565b821061085e576040517f08c379a000000000000000000000000000000000000000000000000000000000815260040161085590613033565b60405180910390fd5b60088281548110610898577f4e487b7100000000000000000000000000000000000000000000000000000000600052603260045260246000fd5b90600052602060002001549050919050565b6000600b60009054906101000a900460ff16905090565b6000806002600084815260200190815260200160002060009054906101000a900473ffffffffffffffffffffffffffffffffffffffff169050600073ffffffffffffffffffffffffffffffffffffffff168173ffffffffffffffffffffffffffffffffffffffff16141561096a576040517f08c379a000000000000000000000000000000000000000000000000000000000815260040161096190612ff3565b60405180910390fd5b80915050919050565b60008073ffffffffffffffffffffffffffffffffffffffff168273ffffffffffffffffffffffffffffffffffffffff1614156109e4576040517f08c379a00000000000000000000000000000000000000000000000000000000081526004016109db90612f53565b60405180910390fd5b600360008373ffffffffffffffffffffffffffffffffffffffff1673ffffffffffffffffffffffffffffffffffffffff168152602001908152602001600020549050919050565b610a33611152565b610a3d600061123f565b565b610a47611152565b610a4f611305565b565b6000600b60019054906101000a900473ffffffffffffffffffffffffffffffffffffffff16905090565b606060018054610a8a906132c9565b80601f0160208091040260200160405190810160405280929190818152602001828054610ab6906132c9565b8015610b035780601f10610ad857610100808354040283529160200191610b03565b820191906000526020600020905b815481529060010190602001808311610ae657829003601f168201915b5050505050905090565b610b1f610b18610d95565b8383611368565b5050565b610b34610b2e610d95565b83610e56565b610b73576040517f08c379a0000000000000000000000000000000000000000000000000000000008152600401610b6a90613053565b60405180910390fd5b610b7f848484846114d5565b50505050565b6060610b9082611531565b9050919050565b610b9f611152565b610ba98383611644565b610bb38282611662565b505050565b6000600560008473ffffffffffffffffffffffffffffffffffffffff1673ffffffffffffffffffffffffffffffffffffffff16815260200190815260200160002060008373ffffffffffffffffffffffffffffffffffffffff1673ffffffffffffffffffffffffffffffffffffffff16815260200190815260200160002060009054906101000a900460ff16905092915050565b610c54611152565b600073ffffffffffffffffffffffffffffffffffffffff168173ffffffffffffffffffffffffffffffffffffffff161415610cc4576040517f08c379a0000000000000000000000000000000000000000000000000000000008152600401610cbb90612e93565b60405180910390fd5b610ccd8161123f565b50565b60007f780e9d63000000000000000000000000000000000000000000000000000000007bffffffffffffffffffffffffffffffffffffffffffffffffffffffff1916827bffffffffffffffffffffffffffffffffffffffffffffffffffffffff19161480610d435750610d42826116d6565b5b9050919050565b610d53816117b8565b610d92576040517f08c379a0000000000000000000000000000000000000000000000000000000008152600401610d8990612ff3565b60405180910390fd5b50565b600033905090565b816004600083815260200190815260200160002060006101000a81548173ffffffffffffffffffffffffffffffffffffffff021916908373ffffffffffffffffffffffffffffffffffffffff160217905550808273ffffffffffffffffffffffffffffffffffffffff16610e10836108c1565b73ffffffffffffffffffffffffffffffffffffffff167f8c5be1e5ebec7d5bd14f71427d1e84f3dd0314c0f7b2291e5b200ac8c7c3b92560405160405180910390a45050565b600080610e62836108c1565b90508073ffffffffffffffffffffffffffffffffffffffff168473ffffffffffffffffffffffffffffffffffffffff161480610ea45750610ea38185610bb8565b5b80610ee257508373ffffffffffffffffffffffffffffffffffffffff16610eca84610515565b73ffffffffffffffffffffffffffffffffffffffff16145b91505092915050565b8273ffffffffffffffffffffffffffffffffffffffff16610f0b826108c1565b73ffffffffffffffffffffffffffffffffffffffff1614610f61576040517f08c379a0000000000000000000000000000000000000000000000000000000008152600401610f5890612eb3565b60405180910390fd5b600073ffffffffffffffffffffffffffffffffffffffff168273ffffffffffffffffffffffffffffffffffffffff161415610fd1576040517f08c379a0000000000000000000000000000000000000000000000000000000008152600401610fc890612ef3565b60405180910390fd5b610fdc838383611824565b610fe7600082610d9d565b6001600360008573ffffffffffffffffffffffffffffffffffffffff1673ffffffffffffffffffffffffffffffffffffffff168152602001908152602001600020600082825461103791906131df565b925050819055506001600360008473ffffffffffffffffffffffffffffffffffffffff1673ffffffffffffffffffffffffffffffffffffffff168152602001908152602001600020600082825461108e9190613158565b92505081905550816002600083815260200190815260200160002060006101000a81548173ffffffffffffffffffffffffffffffffffffffff021916908373ffffffffffffffffffffffffffffffffffffffff160217905550808273ffffffffffffffffffffffffffffffffffffffff168473ffffffffffffffffffffffffffffffffffffffff167fddf252ad1be2c89b69c2b068fc378daa952ba7f163c4a11628f55a4df523b3ef60405160405180910390a461114d83838361183c565b505050565b61115a610d95565b73ffffffffffffffffffffffffffffffffffffffff16611178610a51565b73ffffffffffffffffffffffffffffffffffffffff16146111ce576040517f08c379a00000000000000000000000000000000000000000000000000000000081526004016111c590612fd3565b60405180910390fd5b565b6111d8611841565b6000600b60006101000a81548160ff0219169083151502179055507f5db9ee0a495bf2e6ff9c91a7834c1ba4fdd244a5e8aa4e537bd38aeae4b073aa61121c610d95565b6040516112299190612d8f565b60405180910390a1565b61123c8161188a565b50565b6000600b60019054906101000a900473ffffffffffffffffffffffffffffffffffffffff16905081600b60016101000a81548173ffffffffffffffffffffffffffffffffffffffff021916908373ffffffffffffffffffffffffffffffffffffffff1602179055508173ffffffffffffffffffffffffffffffffffffffff168173ffffffffffffffffffffffffffffffffffffffff167f8be0079c531659141344cd1fd0a4f28419497f9722a3daafe3b4186f6b6457e060405160405180910390a35050565b61130d6118dd565b6001600b60006101000a81548160ff0219169083151502179055507f62e78cea01bee320cd4e420270b5ea74000d11b0c9f74754ebdbfc544b05a258611351610d95565b60405161135e9190612d8f565b60405180910390a1565b8173ffffffffffffffffffffffffffffffffffffffff168373ffffffffffffffffffffffffffffffffffffffff1614156113d7576040517f08c379a00000000000000000000000000000000000000000000000000000000081526004016113ce90612f13565b60405180910390fd5b80600560008573ffffffffffffffffffffffffffffffffffffffff1673ffffffffffffffffffffffffffffffffffffffff16815260200190815260200160002060008473ffffffffffffffffffffffffffffffffffffffff1673ffffffffffffffffffffffffffffffffffffffff16815260200190815260200160002060006101000a81548160ff0219169083151502179055508173ffffffffffffffffffffffffffffffffffffffff168373ffffffffffffffffffffffffffffffffffffffff167f17307eab39ab6107e8899845ad3d59bd9653f200f220920489ca2b5937696c31836040516114c89190612df6565b60405180910390a3505050565b6114e0848484610eeb565b6114ec84848484611927565b61152b576040517f08c379a000000000000000000000000000000000000000000000000000000000815260040161152290612e73565b60405180910390fd5b50505050565b606061153c82610d4a565b6000600a6000848152602001908152602001600020805461155c906132c9565b80601f0160208091040260200160405190810160405280929190818152602001828054611588906132c9565b80156115d55780601f106115aa576101008083540402835291602001916115d5565b820191906000526020600020905b8154815290600101906020018083116115b857829003601f168201915b5050505050905060006115e6611abe565b90506000815114156115fc57819250505061163f565b600082511115611631578082604051602001611619929190612d6b565b6040516020818303038152906040529250505061163f565b61163a84611afb565b925050505b919050565b61165e828260405180602001604052806000815250611b63565b5050565b61166b826117b8565b6116aa576040517f08c379a00000000000000000000000000000000000000000000000000000000081526004016116a190612f73565b60405180910390fd5b80600a600084815260200190815260200160002090805190602001906116d1929190612580565b505050565b60007f80ac58cd000000000000000000000000000000000000000000000000000000007bffffffffffffffffffffffffffffffffffffffffffffffffffffffff1916827bffffffffffffffffffffffffffffffffffffffffffffffffffffffff191614806117a157507f5b5e139f000000000000000000000000000000000000000000000000000000007bffffffffffffffffffffffffffffffffffffffffffffffffffffffff1916827bffffffffffffffffffffffffffffffffffffffffffffffffffffffff1916145b806117b157506117b082611bbe565b5b9050919050565b60008073ffffffffffffffffffffffffffffffffffffffff166002600084815260200190815260200160002060009054906101000a900473ffffffffffffffffffffffffffffffffffffffff1673ffffffffffffffffffffffffffffffffffffffff1614159050919050565b61182c6118dd565b611837838383611c28565b505050565b505050565b6118496108aa565b611888576040517f08c379a000000000000000000000000000000000000000000000000000000000815260040161187f90612e33565b60405180910390fd5b565b61189381611d3c565b6000600a600083815260200190815260200160002080546118b3906132c9565b9050146118da57600a600082815260200190815260200160002060006118d99190612606565b5b50565b6118e56108aa565b15611925576040517f08c379a000000000000000000000000000000000000000000000000000000000815260040161191c90612f33565b60405180910390fd5b565b60006119488473ffffffffffffffffffffffffffffffffffffffff16611e59565b15611ab1578373ffffffffffffffffffffffffffffffffffffffff1663150b7a02611971610d95565b8786866040518563ffffffff1660e01b81526004016119939493929190612daa565b602060405180830381600087803b1580156119ad57600080fd5b505af19250505080156119de57506040513d601f19601f820116820180604052508101906119db91906129d3565b60015b611a61573d8060008114611a0e576040519150601f19603f3d011682016040523d82523d6000602084013e611a13565b606091505b50600081511415611a59576040517f08c379a0000000000000000000000000000000000000000000000000000000008152600401611a5090612e73565b60405180910390fd5b805181602001fd5b63150b7a0260e01b7bffffffffffffffffffffffffffffffffffffffffffffffffffffffff1916817bffffffffffffffffffffffffffffffffffffffffffffffffffffffff191614915050611ab6565b600190505b949350505050565b60606040518060400160405280600f81526020017f68747470733a2f2f697066732e696f0000000000000000000000000000000000815250905090565b6060611b0682610d4a565b6000611b10611abe565b90506000815111611b305760405180602001604052806000815250611b5b565b80611b3a84611e7c565b604051602001611b4b929190612d6b565b6040516020818303038152906040525b915050919050565b611b6d8383612029565b611b7a6000848484611927565b611bb9576040517f08c379a0000000000000000000000000000000000000000000000000000000008152600401611bb090612e73565b60405180910390fd5b505050565b60007f01ffc9a7000000000000000000000000000000000000000000000000000000007bffffffffffffffffffffffffffffffffffffffffffffffffffffffff1916827bffffffffffffffffffffffffffffffffffffffffffffffffffffffff1916149050919050565b611c33838383612203565b600073ffffffffffffffffffffffffffffffffffffffff168373ffffffffffffffffffffffffffffffffffffffff161415611c7657611c7181612208565b611cb5565b8173ffffffffffffffffffffffffffffffffffffffff168373ffffffffffffffffffffffffffffffffffffffff1614611cb457611cb38382612251565b5b5b600073ffffffffffffffffffffffffffffffffffffffff168273ffffffffffffffffffffffffffffffffffffffff161415611cf857611cf3816123be565b611d37565b8273ffffffffffffffffffffffffffffffffffffffff168273ffffffffffffffffffffffffffffffffffffffff1614611d3657611d358282612501565b5b5b505050565b6000611d47826108c1565b9050611d5581600084611824565b611d60600083610d9d565b6001600360008373ffffffffffffffffffffffffffffffffffffffff1673ffffffffffffffffffffffffffffffffffffffff1681526020019081526020016000206000828254611db091906131df565b925050819055506002600083815260200190815260200160002060006101000a81549073ffffffffffffffffffffffffffffffffffffffff021916905581600073ffffffffffffffffffffffffffffffffffffffff168273ffffffffffffffffffffffffffffffffffffffff167fddf252ad1be2c89b69c2b068fc378daa952ba7f163c4a11628f55a4df523b3ef60405160405180910390a4611e558160008461183c565b5050565b6000808273ffffffffffffffffffffffffffffffffffffffff163b119050919050565b60606000821415611ec4576040518060400160405280600181526020017f30000000000000000000000000000000000000000000000000000000000000008152509050612024565b600082905060005b60008214611ef6578080611edf9061332c565b915050600a82611eef91906131ae565b9150611ecc565b60008167ffffffffffffffff811115611f38577f4e487b7100000000000000000000000000000000000000000000000000000000600052604160045260246000fd5b6040519080825280601f01601f191660200182016040528015611f6a5781602001600182028036833780820191505090505b5090505b6000851461201d57600182611f8391906131df565b9150600a85611f929190613375565b6030611f9e9190613158565b60f81b818381518110611fda577f4e487b7100000000000000000000000000000000000000000000000000000000600052603260045260246000fd5b60200101907effffffffffffffffffffffffffffffffffffffffffffffffffffffffffffff1916908160001a905350600a8561201691906131ae565b9450611f6e565b8093505050505b919050565b600073ffffffffffffffffffffffffffffffffffffffff168273ffffffffffffffffffffffffffffffffffffffff161415612099576040517f08c379a000000000000000000000000000000000000000000000000000000000815260040161209090612fb3565b60405180910390fd5b6120a2816117b8565b156120e2576040517f08c379a00000000000000000000000000000000000000000000000000000000081526004016120d990612ed3565b60405180910390fd5b6120ee60008383611824565b6001600360008473ffffffffffffffffffffffffffffffffffffffff1673ffffffffffffffffffffffffffffffffffffffff168152602001908152602001600020600082825461213e9190613158565b92505081905550816002600083815260200190815260200160002060006101000a81548173ffffffffffffffffffffffffffffffffffffffff021916908373ffffffffffffffffffffffffffffffffffffffff160217905550808273ffffffffffffffffffffffffffffffffffffffff16600073ffffffffffffffffffffffffffffffffffffffff167fddf252ad1be2c89b69c2b068fc378daa952ba7f163c4a11628f55a4df523b3ef60405160405180910390a46121ff6000838361183c565b5050565b505050565b6008805490506009600083815260200190815260200160002081905550600881908060018154018082558091505060019003906000526020600020016000909190919091505550565b6000600161225e84610973565b61226891906131df565b905060006007600084815260200190815260200160002054905081811461234d576000600660008673ffffffffffffffffffffffffffffffffffffffff1673ffffffffffffffffffffffffffffffffffffffff168152602001908152602001600020600084815260200190815260200160002054905080600660008773ffffffffffffffffffffffffffffffffffffffff1673ffffffffffffffffffffffffffffffffffffffff168152602001908152602001600020600084815260200190815260200160002081905550816007600083815260200190815260200160002081905550505b6007600084815260200190815260200160002060009055600660008573ffffffffffffffffffffffffffffffffffffffff1673ffffffffffffffffffffffffffffffffffffffff16815260200190815260200160002060008381526020019081526020016000206000905550505050565b600060016008805490506123d291906131df565b9050600060096000848152602001908152602001600020549050600060088381548110612428577f4e487b7100000000000000000000000000000000000000000000000000000000600052603260045260246000fd5b906000526020600020015490508060088381548110612470577f4e487b7100000000000000000000000000000000000000000000000000000000600052603260045260246000fd5b9060005260206000200181905550816009600083815260200190815260200160002081905550600960008581526020019081526020016000206000905560088054806124e5577f4e487b7100000000000000000000000000000000000000000000000000000000600052603160045260246000fd5b6001900381819060005260206000200160009055905550505050565b600061250c83610973565b905081600660008573ffffffffffffffffffffffffffffffffffffffff1673ffffffffffffffffffffffffffffffffffffffff168152602001908152602001600020600083815260200190815260200160002081905550806007600084815260200190815260200160002081905550505050565b82805461258c906132c9565b90600052602060002090601f0160209004810192826125ae57600085556125f5565b82601f106125c757805160ff19168380011785556125f5565b828001600101855582156125f5579182015b828111156125f45782518255916020019190600101906125d9565b5b5090506126029190612646565b5090565b508054612612906132c9565b6000825580601f106126245750612643565b601f0160209004906000526020600020908101906126429190612646565b5b50565b5b8082111561265f576000816000905550600101612647565b5090565b6000612676612671846130b3565b61308e565b90508281526020810184848401111561268e57600080fd5b612699848285613287565b509392505050565b60006126b46126af846130e4565b61308e565b9050828152602081018484840111156126cc57600080fd5b6126d7848285613287565b509392505050565b6000813590506126ee816138f7565b92915050565b6000813590506127038161390e565b92915050565b60008135905061271881613925565b92915050565b60008151905061272d81613925565b92915050565b600082601f83011261274457600080fd5b8135612754848260208601612663565b91505092915050565b600082601f83011261276e57600080fd5b813561277e8482602086016126a1565b91505092915050565b6000813590506127968161393c565b92915050565b6000602082840312156127ae57600080fd5b60006127bc848285016126df565b91505092915050565b600080604083850312156127d857600080fd5b60006127e6858286016126df565b92505060206127f7858286016126df565b9150509250929050565b60008060006060848603121561281657600080fd5b6000612824868287016126df565b9350506020612835868287016126df565b925050604061284686828701612787565b9150509250925092565b6000806000806080858703121561286657600080fd5b6000612874878288016126df565b9450506020612885878288016126df565b935050604061289687828801612787565b925050606085013567ffffffffffffffff8111156128b357600080fd5b6128bf87828801612733565b91505092959194509250565b600080604083850312156128de57600080fd5b60006128ec858286016126df565b92505060206128fd858286016126f4565b9150509250929050565b6000806040838503121561291a57600080fd5b6000612928858286016126df565b925050602061293985828601612787565b9150509250929050565b60008060006060848603121561295857600080fd5b6000612966868287016126df565b935050602061297786828701612787565b925050604084013567ffffffffffffffff81111561299457600080fd5b6129a08682870161275d565b9150509250925092565b6000602082840312156129bc57600080fd5b60006129ca84828501612709565b91505092915050565b6000602082840312156129e557600080fd5b60006129f38482850161271e565b91505092915050565b600060208284031215612a0e57600080fd5b6000612a1c84828501612787565b91505092915050565b612a2e81613213565b82525050565b612a3d81613225565b82525050565b6000612a4e82613115565b612a58818561312b565b9350612a68818560208601613296565b612a7181613462565b840191505092915050565b6000612a8782613120565b612a91818561313c565b9350612aa1818560208601613296565b612aaa81613462565b840191505092915050565b6000612ac082613120565b612aca818561314d565b9350612ada818560208601613296565b80840191505092915050565b6000612af360148361313c565b9150612afe82613473565b602082019050919050565b6000612b16602b8361313c565b9150612b218261349c565b604082019050919050565b6000612b3960328361313c565b9150612b44826134eb565b604082019050919050565b6000612b5c60268361313c565b9150612b678261353a565b604082019050919050565b6000612b7f60258361313c565b9150612b8a82613589565b604082019050919050565b6000612ba2601c8361313c565b9150612bad826135d8565b602082019050919050565b6000612bc560248361313c565b9150612bd082613601565b604082019050919050565b6000612be860198361313c565b9150612bf382613650565b602082019050919050565b6000612c0b60108361313c565b9150612c1682613679565b602082019050919050565b6000612c2e60298361313c565b9150612c39826136a2565b604082019050919050565b6000612c51602e8361313c565b9150612c5c826136f1565b604082019050919050565b6000612c74603e8361313c565b9150612c7f82613740565b604082019050919050565b6000612c9760208361313c565b9150612ca28261378f565b602082019050919050565b6000612cba60208361313c565b9150612cc5826137b8565b602082019050919050565b6000612cdd60188361313c565b9150612ce8826137e1565b602082019050919050565b6000612d0060218361313c565b9150612d0b8261380a565b604082019050919050565b6000612d23602c8361313c565b9150612d2e82613859565b604082019050919050565b6000612d46602e8361313c565b9150612d51826138a8565b604082019050919050565b612d658161327d565b82525050565b6000612d778285612ab5565b9150612d838284612ab5565b91508190509392505050565b6000602082019050612da46000830184612a25565b92915050565b6000608082019050612dbf6000830187612a25565b612dcc6020830186612a25565b612dd96040830185612d5c565b8181036060830152612deb8184612a43565b905095945050505050565b6000602082019050612e0b6000830184612a34565b92915050565b60006020820190508181036000830152612e2b8184612a7c565b905092915050565b60006020820190508181036000830152612e4c81612ae6565b9050919050565b60006020820190508181036000830152612e6c81612b09565b9050919050565b60006020820190508181036000830152612e8c81612b2c565b9050919050565b60006020820190508181036000830152612eac81612b4f565b9050919050565b60006020820190508181036000830152612ecc81612b72565b9050919050565b60006020820190508181036000830152612eec81612b95565b9050919050565b60006020820190508181036000830152612f0c81612bb8565b9050919050565b60006020820190508181036000830152612f2c81612bdb565b9050919050565b60006020820190508181036000830152612f4c81612bfe565b9050919050565b60006020820190508181036000830152612f6c81612c21565b9050919050565b60006020820190508181036000830152612f8c81612c44565b9050919050565b60006020820190508181036000830152612fac81612c67565b9050919050565b60006020820190508181036000830152612fcc81612c8a565b9050919050565b60006020820190508181036000830152612fec81612cad565b9050919050565b6000602082019050818103600083015261300c81612cd0565b9050919050565b6000602082019050818103600083015261302c81612cf3565b9050919050565b6000602082019050818103600083015261304c81612d16565b9050919050565b6000602082019050818103600083015261306c81612d39565b9050919050565b60006020820190506130886000830184612d5c565b92915050565b60006130986130a9565b90506130a482826132fb565b919050565b6000604051905090565b600067ffffffffffffffff8211156130ce576130cd613433565b5b6130d782613462565b9050602081019050919050565b600067ffffffffffffffff8211156130ff576130fe613433565b5b61310882613462565b9050602081019050919050565b600081519050919050565b600081519050919050565b600082825260208201905092915050565b600082825260208201905092915050565b600081905092915050565b60006131638261327d565b915061316e8361327d565b9250827fffffffffffffffffffffffffffffffffffffffffffffffffffffffffffffffff038211156131a3576131a26133a6565b5b828201905092915050565b60006131b98261327d565b91506131c48361327d565b9250826131d4576131d36133d5565b5b828204905092915050565b60006131ea8261327d565b91506131f58361327d565b925082821015613208576132076133a6565b5b828203905092915050565b600061321e8261325d565b9050919050565b60008115159050919050565b60007fffffffff0000000000000000000000000000000000000000000000000000000082169050919050565b600073ffffffffffffffffffffffffffffffffffffffff82169050919050565b6000819050919050565b82818337600083830152505050565b60005b838110156132b4578082015181840152602081019050613299565b838111156132c3576000848401525b50505050565b600060028204905060018216806132e157607f821691505b602082108114156132f5576132f4613404565b5b50919050565b61330482613462565b810181811067ffffffffffffffff8211171561332357613322613433565b5b80604052505050565b60006133378261327d565b91507fffffffffffffffffffffffffffffffffffffffffffffffffffffffffffffffff82141561336a576133696133a6565b5b600182019050919050565b60006133808261327d565b915061338b8361327d565b92508261339b5761339a6133d5565b5b828206905092915050565b7f4e487b7100000000000000000000000000000000000000000000000000000000600052601160045260246000fd5b7f4e487b7100000000000000000000000000000000000000000000000000000000600052601260045260246000fd5b7f4e487b7100000000000000000000000000000000000000000000000000000000600052602260045260246000fd5b7f4e487b7100000000000000000000000000000000000000000000000000000000600052604160045260246000fd5b6000601f19601f8301169050919050565b7f5061757361626c653a206e6f7420706175736564000000000000000000000000600082015250565b7f455243373231456e756d657261626c653a206f776e657220696e646578206f7560008201527f74206f6620626f756e6473000000000000000000000000000000000000000000602082015250565b7f4552433732313a207472616e7366657220746f206e6f6e20455243373231526560008201527f63656976657220696d706c656d656e7465720000000000000000000000000000602082015250565b7f4f776e61626c653a206e6577206f776e657220697320746865207a65726f206160008201527f6464726573730000000000000000000000000000000000000000000000000000602082015250565b7f4552433732313a207472616e736665722066726f6d20696e636f72726563742060008201527f6f776e6572000000000000000000000000000000000000000000000000000000602082015250565b7f4552433732313a20746f6b656e20616c7265616479206d696e74656400000000600082015250565b7f4552433732313a207472616e7366657220746f20746865207a65726f2061646460008201527f7265737300000000000000000000000000000000000000000000000000000000602082015250565b7f4552433732313a20617070726f766520746f2063616c6c657200000000000000600082015250565b7f5061757361626c653a2070617573656400000000000000000000000000000000600082015250565b7f4552433732313a2061646472657373207a65726f206973206e6f74206120766160008201527f6c6964206f776e65720000000000000000000000000000000000000000000000602082015250565b7f45524337323155524953746f726167653a2055524920736574206f66206e6f6e60008201527f6578697374656e7420746f6b656e000000000000000000000000000000000000602082015250565b7f4552433732313a20617070726f76652063616c6c6572206973206e6f7420746f60008201527f6b656e206f776e6572206e6f7220617070726f76656420666f7220616c6c0000602082015250565b7f4552433732313a206d696e7420746f20746865207a65726f2061646472657373600082015250565b7f4f776e61626c653a2063616c6c6572206973206e6f7420746865206f776e6572600082015250565b7f4552433732313a20696e76616c696420746f6b656e2049440000000000000000600082015250565b7f4552433732313a20617070726f76616c20746f2063757272656e74206f776e6560008201527f7200000000000000000000000000000000000000000000000000000000000000602082015250565b7f455243373231456e756d657261626c653a20676c6f62616c20696e646578206f60008201527f7574206f6620626f756e64730000000000000000000000000000000000000000602082015250565b7f4552433732313a2063616c6c6572206973206e6f7420746f6b656e206f776e6560008201527f72206e6f7220617070726f766564000000000000000000000000000000000000602082015250565b61390081613213565b811461390b57600080fd5b50565b61391781613225565b811461392257600080fd5b50565b61392e81613231565b811461393957600080fd5b50565b6139458161327d565b811461395057600080fd5b5056fea2646970667358221220698d7b30dd9f7a7f3d9d53fed8a9dc668d0cc5ed7f155c901702c19497755cc564736f6c63430008010033",
    "linkReferences": {},
    "deployedLinkReferences": {}
}